{
  "contractName": "Auction",
  "abi": [
    {
      "inputs": [
        {
          "internalType": "uint256",
          "name": "_tokenAmount",
          "type": "uint256"
        },
        {
          "internalType": "address",
          "name": "_tokenContractAddress",
          "type": "address"
        },
        {
          "internalType": "uint256",
          "name": "_startDateTime",
          "type": "uint256"
        },
        {
          "internalType": "uint256",
          "name": "_endDateTime",
          "type": "uint256"
        }
      ],
      "stateMutability": "nonpayable",
      "type": "constructor"
    },
    {
      "inputs": [
        {
          "internalType": "uint256",
          "name": "",
          "type": "uint256"
        }
      ],
      "name": "bidderAddresses",
      "outputs": [
        {
          "internalType": "address",
          "name": "",
          "type": "address"
        }
      ],
      "stateMutability": "view",
      "type": "function"
    },
    {
      "inputs": [],
      "name": "bidderDeposit",
      "outputs": [
        {
          "internalType": "uint256",
          "name": "",
          "type": "uint256"
        }
      ],
      "stateMutability": "view",
      "type": "function"
    },
    {
      "inputs": [
        {
          "internalType": "address",
          "name": "",
          "type": "address"
        }
      ],
      "name": "bidders",
      "outputs": [
        {
          "internalType": "bool",
          "name": "isInvited",
          "type": "bool"
        },
        {
          "internalType": "uint256",
          "name": "balance",
          "type": "uint256"
        },
        {
          "internalType": "uint256",
          "name": "bid",
          "type": "uint256"
        },
        {
          "internalType": "uint256",
          "name": "bidDateTime",
          "type": "uint256"
        }
      ],
      "stateMutability": "view",
      "type": "function"
    },
    {
      "inputs": [],
      "name": "endDateTime",
      "outputs": [
        {
          "internalType": "uint256",
          "name": "",
          "type": "uint256"
        }
      ],
      "stateMutability": "view",
      "type": "function"
    },
    {
      "inputs": [],
      "name": "factory",
      "outputs": [
        {
          "internalType": "address",
          "name": "",
          "type": "address"
        }
      ],
      "stateMutability": "view",
      "type": "function"
    },
    {
      "inputs": [],
      "name": "seller",
      "outputs": [
        {
          "internalType": "address",
          "name": "",
          "type": "address"
        }
      ],
      "stateMutability": "view",
      "type": "function"
    },
    {
      "inputs": [],
      "name": "sellerDeposit",
      "outputs": [
        {
          "internalType": "uint256",
          "name": "",
          "type": "uint256"
        }
      ],
      "stateMutability": "view",
      "type": "function"
    },
    {
      "inputs": [],
      "name": "startDateTime",
      "outputs": [
        {
          "internalType": "uint256",
          "name": "",
          "type": "uint256"
        }
      ],
      "stateMutability": "view",
      "type": "function"
    },
    {
      "inputs": [],
      "name": "tokenAmount",
      "outputs": [
        {
          "internalType": "uint256",
          "name": "",
          "type": "uint256"
        }
      ],
      "stateMutability": "view",
      "type": "function"
    },
    {
      "inputs": [],
      "name": "tokenContractAddress",
      "outputs": [
        {
          "internalType": "address",
          "name": "",
          "type": "address"
        }
      ],
      "stateMutability": "view",
      "type": "function"
    },
    {
      "inputs": [
        {
          "internalType": "address",
          "name": "_seller",
          "type": "address"
        }
      ],
      "name": "registerSeller",
      "outputs": [],
      "stateMutability": "nonpayable",
      "type": "function"
    },
    {
      "inputs": [],
      "name": "receiveSellerDeposit",
      "outputs": [],
      "stateMutability": "payable",
      "type": "function"
    },
    {
      "inputs": [],
      "name": "getBidders",
      "outputs": [
        {
          "internalType": "address[]",
          "name": "",
          "type": "address[]"
        }
      ],
      "stateMutability": "view",
      "type": "function"
    },
    {
      "inputs": [
        {
          "internalType": "uint256",
          "name": "_bidderDeposit",
          "type": "uint256"
        },
        {
          "internalType": "address[]",
          "name": "_bidderAddresses",
          "type": "address[]"
        }
      ],
      "name": "setupBidders",
      "outputs": [],
      "stateMutability": "nonpayable",
      "type": "function"
    }
  ],
  "bytecode": "0x608060405234801561001057600080fd5b506040516107313803806107318339818101604052608081101561003357600080fd5b50805160208201516040830151606090930151600080546001600160a01b03199081163317909155600493909355600580546001600160a01b03909316929093169190911790915560069190915560075561069e806100936000396000f3fe6080604052600436106100dd5760003560e01c806382edaf941161007f578063cb6632ef11610059578063cb6632ef14610286578063eec7faa1146102eb578063f34eb20614610300578063fcc8f79314610308576100dd565b806382edaf94146101d857806399c67227146101ed578063c45a015514610271576100dd565b80633f2965f0116100bb5780633f2965f0146101645780634c1786ea146101995780635f08db0a146101ae578063775f75df146101c3576100dd565b806308551a53146100e25780632fb3c48f146101135780633c9177cd1461013d575b600080fd5b3480156100ee57600080fd5b506100f7610363565b604080516001600160a01b039092168252519081900360200190f35b34801561011f57600080fd5b506100f76004803603602081101561013657600080fd5b5035610372565b34801561014957600080fd5b50610152610399565b60408051918252519081900360200190f35b34801561017057600080fd5b506101976004803603602081101561018757600080fd5b50356001600160a01b031661039f565b005b3480156101a557600080fd5b50610152610418565b3480156101ba57600080fd5b5061015261041e565b3480156101cf57600080fd5b50610152610424565b3480156101e457600080fd5b506100f761042a565b3480156101f957600080fd5b506101976004803603604081101561021057600080fd5b8135919081019060408101602082013564010000000081111561023257600080fd5b82018360208201111561024457600080fd5b8035906020019184602083028401116401000000008311171561026657600080fd5b509092509050610439565b34801561027d57600080fd5b506100f7610492565b34801561029257600080fd5b5061029b6104a1565b60408051602080825283518183015283519192839290830191858101910280838360005b838110156102d75781810151838201526020016102bf565b505050509050019250505060405180910390f35b3480156102f757600080fd5b50610152610503565b610197610509565b34801561031457600080fd5b5061033b6004803603602081101561032b57600080fd5b50356001600160a01b0316610566565b6040805194151585526020850193909352838301919091526060830152519081900360800190f35b6001546001600160a01b031681565b6009818154811061037f57fe5b6000918252602090912001546001600160a01b0316905081565b60075481565b6000546001600160a01b031633146103f6576040805162461bcd60e51b815260206004820152601560248201527414d95b99195c881b9bdd08185d5d1a1bdc9a5e9959605a1b604482015290519081900360640190fd5b600180546001600160a01b0319166001600160a01b0392909216919091179055565b60025481565b60035481565b60065481565b6005546001600160a01b031681565b6001546001600160a01b0316331461045057600080fd5b600383905560005b8181101561048c5761048483838381811061046f57fe5b905060200201356001600160a01b0316610591565b600101610458565b50505050565b6000546001600160a01b031681565b606060098054806020026020016040519081016040528092919081815260200182805480156104f957602002820191906000526020600020905b81546001600160a01b031681526001909101906020018083116104db575b5050505050905090565b60045481565b6001546001600160a01b03163314610560576040805162461bcd60e51b815260206004820152601560248201527414d95b99195c881b9bdd08185d5d1a1bdc9a5e9959605a1b604482015290519081900360640190fd5b34600255565b600860205260009081526040902080546001820154600283015460039093015460ff90921692909184565b61059a8161064a565b156105e4576040805162461bcd60e51b815260206004820152601560248201527442696464657220616c72656164792065786973747360581b604482015290519081900360640190fd5b6001600160a01b03166000818152600860205260408120805460ff191660019081179091556009805491820181559091527f6e1540171b6c0c960b71a7020d9f60077f6af931a8bbf590da0223dacf75c7af0180546001600160a01b0319169091179055565b6001600160a01b031660009081526008602052604090205460ff169056fea2646970667358221220027c2f949905acb159391bd9227a9c81074d1b51a8558aefc77abba86b60d40b64736f6c63430006020033",
  "source": "// SPDX-License-Identifier: MIT\npragma solidity ^0.6.2;\n\n// import '@openzeppelin/contracts/proxy/Initializable.sol';\n// import '@openzeppelin/upgrades/contracts/Initializable.sol';\n\ncontract Auction {\n  address public factory;\n  address public seller;\n  uint256 public sellerDeposit;\n  uint256 public bidderDeposit;\n  uint256 public tokenAmount;\n  address public tokenContractAddress;\n  uint256 public startDateTime;\n  uint256 public endDateTime;\n\n  struct Bidder {\n    bool isInvited;\n    uint256 balance;\n    uint256 bid;\n    uint256 bidDateTime;\n  }\n\n  mapping(address => Bidder) public bidders;\n  address[] public bidderAddresses;\n\n  constructor(\n    uint256 _tokenAmount,\n    address _tokenContractAddress,\n    uint256 _startDateTime,\n    uint256 _endDateTime\n  ) public {\n    factory = msg.sender;\n    tokenAmount = _tokenAmount;\n    tokenContractAddress = _tokenContractAddress;\n    startDateTime = _startDateTime;\n    endDateTime = _endDateTime;\n  }\n\n  function registerSeller(address _seller) external {\n    require(msg.sender == factory, 'Sender not authorized');\n    seller = _seller;\n  }\n\n  function receiveSellerDeposit() external payable {\n    // consider using initialize or other modifier to preven selling from changing deposit\n    require(msg.sender == seller, 'Sender not authorized');\n    sellerDeposit = msg.value;\n  }\n\n  function getBidders() public view returns (address[] memory) {\n    return bidderAddresses;\n  }\n\n  function isInvitedBidder(address bidderAddress) private view returns(bool) {\n    return bidders[bidderAddress].isInvited;\n  }\n\n  function inviteBidder(address bidderAddress) private {\n    require(!isInvitedBidder(bidderAddress), 'Bidder already exists');\n    bidders[bidderAddress].isInvited = true;\n    bidderAddresses.push(bidderAddress);\n  }\n\n  function setupBidders(uint _bidderDeposit, address[] calldata _bidderAddresses) external {\n    require(msg.sender == seller);\n    bidderDeposit = _bidderDeposit;\n    for (uint256 i = 0; i < _bidderAddresses.length; i++) {\n      inviteBidder(_bidderAddresses[i]);\n    }\n  }\n}",
  "sourcePath": "/Users/michaelmueller/code/consensys-bootcamp/gloom/contracts/Auction.sol",
  "compiler": {
    "name": "solc",
    "version": "0.6.2+commit.bacdbe57.Emscripten.clang"
  },
  "schemaVersion": "3.3.1",
  "updatedAt": "2020-12-01T19:27:01.866Z",
  "devdoc": {
    "methods": {}
  },
  "userdoc": {
    "methods": {}
  }
}