{
  "contractName": "Auction",
  "abi": [
    {
      "inputs": [
        {
          "internalType": "uint256",
          "name": "_tokenAmount",
          "type": "uint256"
        },
        {
          "internalType": "address",
          "name": "_tokenContractAddress",
          "type": "address"
        },
        {
          "internalType": "uint256",
          "name": "_startDateTime",
          "type": "uint256"
        },
        {
          "internalType": "uint256",
          "name": "_endDateTime",
          "type": "uint256"
        }
      ],
      "stateMutability": "nonpayable",
      "type": "constructor"
    },
    {
      "inputs": [],
      "name": "bidderDeposit",
      "outputs": [
        {
          "internalType": "uint256",
          "name": "",
          "type": "uint256"
        }
      ],
      "stateMutability": "view",
      "type": "function"
    },
    {
      "inputs": [
        {
          "internalType": "address",
          "name": "",
          "type": "address"
        }
      ],
      "name": "bidders",
      "outputs": [
        {
          "internalType": "bool",
          "name": "invited",
          "type": "bool"
        },
        {
          "internalType": "uint256",
          "name": "balance",
          "type": "uint256"
        },
        {
          "internalType": "uint256",
          "name": "bid",
          "type": "uint256"
        },
        {
          "internalType": "uint256",
          "name": "bidDateTime",
          "type": "uint256"
        }
      ],
      "stateMutability": "view",
      "type": "function"
    },
    {
      "inputs": [],
      "name": "endDateTime",
      "outputs": [
        {
          "internalType": "uint256",
          "name": "",
          "type": "uint256"
        }
      ],
      "stateMutability": "view",
      "type": "function"
    },
    {
      "inputs": [],
      "name": "factory",
      "outputs": [
        {
          "internalType": "address",
          "name": "",
          "type": "address"
        }
      ],
      "stateMutability": "view",
      "type": "function"
    },
    {
      "inputs": [],
      "name": "seller",
      "outputs": [
        {
          "internalType": "address",
          "name": "",
          "type": "address"
        }
      ],
      "stateMutability": "view",
      "type": "function"
    },
    {
      "inputs": [],
      "name": "sellerDeposit",
      "outputs": [
        {
          "internalType": "uint256",
          "name": "",
          "type": "uint256"
        }
      ],
      "stateMutability": "view",
      "type": "function"
    },
    {
      "inputs": [],
      "name": "startDateTime",
      "outputs": [
        {
          "internalType": "uint256",
          "name": "",
          "type": "uint256"
        }
      ],
      "stateMutability": "view",
      "type": "function"
    },
    {
      "inputs": [],
      "name": "tokenAmount",
      "outputs": [
        {
          "internalType": "uint256",
          "name": "",
          "type": "uint256"
        }
      ],
      "stateMutability": "view",
      "type": "function"
    },
    {
      "inputs": [],
      "name": "tokenContractAddress",
      "outputs": [
        {
          "internalType": "address",
          "name": "",
          "type": "address"
        }
      ],
      "stateMutability": "view",
      "type": "function"
    },
    {
      "inputs": [
        {
          "internalType": "address",
          "name": "_seller",
          "type": "address"
        }
      ],
      "name": "registerSeller",
      "outputs": [],
      "stateMutability": "nonpayable",
      "type": "function"
    },
    {
      "inputs": [],
      "name": "receiveSellerDeposit",
      "outputs": [],
      "stateMutability": "payable",
      "type": "function"
    },
    {
      "inputs": [
        {
          "internalType": "address[]",
          "name": "_bidders",
          "type": "address[]"
        }
      ],
      "name": "registerBidder",
      "outputs": [],
      "stateMutability": "nonpayable",
      "type": "function"
    }
  ],
  "bytecode": "0x608060405234801561001057600080fd5b506040516105073803806105078339818101604052608081101561003357600080fd5b50805160208201516040830151606090930151600080546001600160a01b03199081163317909155600493909355600580546001600160a01b039093169290931691909117909155600691909155600755610474806100936000396000f3fe6080604052600436106100a75760003560e01c8063775f75df11610064578063775f75df146101e057806382edaf94146101f5578063c45a01551461020a578063eec7faa11461021f578063f34eb20614610234578063fcc8f7931461023c576100a7565b806308551a53146100ac5780633c9177cd146100dd5780633f2965f014610104578063413c2502146101395780634c1786ea146101b65780635f08db0a146101cb575b600080fd5b3480156100b857600080fd5b506100c1610297565b604080516001600160a01b039092168252519081900360200190f35b3480156100e957600080fd5b506100f26102a6565b60408051918252519081900360200190f35b34801561011057600080fd5b506101376004803603602081101561012757600080fd5b50356001600160a01b03166102ac565b005b34801561014557600080fd5b506101376004803603602081101561015c57600080fd5b81019060208101813564010000000081111561017757600080fd5b82018360208201111561018957600080fd5b803590602001918460208302840111640100000000831117156101ab57600080fd5b509092509050610325565b3480156101c257600080fd5b506100f2610380565b3480156101d757600080fd5b506100f2610386565b3480156101ec57600080fd5b506100f261038c565b34801561020157600080fd5b506100c1610392565b34801561021657600080fd5b506100c16103a1565b34801561022b57600080fd5b506100f26103b0565b6101376103b6565b34801561024857600080fd5b5061026f6004803603602081101561025f57600080fd5b50356001600160a01b0316610413565b6040805194151585526020850193909352838301919091526060830152519081900360800190f35b6001546001600160a01b031681565b60075481565b6000546001600160a01b03163314610303576040805162461bcd60e51b815260206004820152601560248201527414d95b99195c881b9bdd08185d5d1a1bdc9a5e9959605a1b604482015290519081900360640190fd5b600180546001600160a01b0319166001600160a01b0392909216919091179055565b60005b8181101561037b5760016008600085858581811061034257fe5b602090810292909201356001600160a01b0316835250810191909152604001600020805460ff1916911515919091179055600101610328565b505050565b60025481565b60035481565b60065481565b6005546001600160a01b031681565b6000546001600160a01b031681565b60045481565b6001546001600160a01b0316331461040d576040805162461bcd60e51b815260206004820152601560248201527414d95b99195c881b9bdd08185d5d1a1bdc9a5e9959605a1b604482015290519081900360640190fd5b34600255565b600860205260009081526040902080546001820154600283015460039093015460ff9092169290918456fea264697066735822122010173877758c62827d8e06fef4a7450857f33f62efef178cdd609d9cb552779a64736f6c63430006020033",
  "source": "// SPDX-License-Identifier: MIT\npragma solidity ^0.6.2;\n\n// import '@openzeppelin/contracts/proxy/Initializable.sol';\n// import '@openzeppelin/upgrades/contracts/Initializable.sol';\n\ncontract Auction {\n  address public factory;\n  address public seller;\n  uint256 public sellerDeposit;\n  uint256 public bidderDeposit;\n  uint256 public tokenAmount;\n  address public tokenContractAddress;\n  uint256 public startDateTime;\n  uint256 public endDateTime;\n\n  struct Bidder {\n    bool invited;\n    uint256 balance;\n    uint256 bid;\n    uint256 bidDateTime;\n  }\n\n  mapping(address => Bidder) public bidders;\n\n  constructor(\n    uint256 _tokenAmount,\n    address _tokenContractAddress,\n    uint256 _startDateTime,\n    uint256 _endDateTime\n  ) public {\n    factory = msg.sender;\n    tokenAmount = _tokenAmount;\n    tokenContractAddress = _tokenContractAddress;\n    startDateTime = _startDateTime;\n    endDateTime = _endDateTime;\n  }\n\n  function registerSeller(address _seller) external {\n    require(msg.sender == factory, 'Sender not authorized');\n    seller = _seller;\n  }\n\n  function receiveSellerDeposit() external payable {\n    require(msg.sender == seller, 'Sender not authorized');\n    sellerDeposit = msg.value;\n  }\n\n  function registerBidder(address[] calldata _bidders) external {\n    // require(msg.sender == seller);\n    for (uint256 i = 0; i < _bidders.length; i++) {\n      bidders[_bidders[i]].invited = true;\n    }\n  }\n}\n",
  "sourcePath": "/Users/michaelmueller/code/consensys-bootcamp/gloom/contracts/Auction.sol",
  "compiler": {
    "name": "solc",
    "version": "0.6.2+commit.bacdbe57.Emscripten.clang"
  },
  "schemaVersion": "3.3.1",
  "updatedAt": "2020-12-01T00:05:20.527Z",
  "devdoc": {
    "methods": {}
  },
  "userdoc": {
    "methods": {}
  }
}