{
  "contractName": "AuctionFactory",
  "abi": [
    {
      "inputs": [],
      "stateMutability": "nonpayable",
      "type": "constructor"
    },
    {
      "anonymous": false,
      "inputs": [
        {
          "indexed": false,
          "internalType": "contract Auction",
          "name": "auction",
          "type": "address"
        },
        {
          "indexed": true,
          "internalType": "address",
          "name": "seller",
          "type": "address"
        }
      ],
      "name": "AuctionCreated",
      "type": "event"
    },
    {
      "inputs": [],
      "name": "admin",
      "outputs": [
        {
          "internalType": "address",
          "name": "",
          "type": "address"
        }
      ],
      "stateMutability": "view",
      "type": "function",
      "constant": true
    },
    {
      "inputs": [
        {
          "internalType": "uint256",
          "name": "",
          "type": "uint256"
        }
      ],
      "name": "auctionAddresses",
      "outputs": [
        {
          "internalType": "contract Auction",
          "name": "",
          "type": "address"
        }
      ],
      "stateMutability": "view",
      "type": "function",
      "constant": true
    },
    {
      "inputs": [],
      "name": "getAddresses",
      "outputs": [
        {
          "internalType": "contract Auction[]",
          "name": "",
          "type": "address[]"
        }
      ],
      "stateMutability": "view",
      "type": "function",
      "constant": true
    },
    {
      "inputs": [
        {
          "internalType": "uint256",
          "name": "tokenAmount",
          "type": "uint256"
        },
        {
          "internalType": "address",
          "name": "tokenContractAddress",
          "type": "address"
        },
        {
          "internalType": "uint256",
          "name": "startDateTime",
          "type": "uint256"
        },
        {
          "internalType": "uint256",
          "name": "endDateTime",
          "type": "uint256"
        },
        {
          "internalType": "address",
          "name": "seller",
          "type": "address"
        }
      ],
      "name": "createAuction",
      "outputs": [
        {
          "internalType": "address",
          "name": "",
          "type": "address"
        }
      ],
      "stateMutability": "nonpayable",
      "type": "function"
    }
  ],
  "bytecode": "0x608060405234801561001057600080fd5b50600180546001600160a01b031916331790556106e6806100326000396000f3fe608060405234801561001057600080fd5b506004361061004c5760003560e01c806336bfb6be14610051578063a39fac12146100ad578063ca98362b14610105578063f851a44014610122575b600080fd5b610091600480360360a081101561006757600080fd5b508035906001600160a01b036020820135811691604081013591606082013591608001351661012a565b604080516001600160a01b039092168252519081900360200190f35b6100b561027f565b60408051602080825283518183015283519192839290830191858101910280838360005b838110156100f15781810151838201526020016100d9565b505050509050019250505060405180910390f35b6100916004803603602081101561011b57600080fd5b50356102e1565b610091610308565b6000808686868660405161013d90610317565b9384526001600160a01b03909216602084015260408084019190915260608301919091525190819003608001906000f08015801561017f573d6000803e3d6000fd5b509050806001600160a01b0316633f2965f0846040518263ffffffff1660e01b815260040180826001600160a01b03166001600160a01b03168152602001915050600060405180830381600087803b1580156101da57600080fd5b505af11580156101ee573d6000803e3d6000fd5b5050600080546001810182559080527f290decd9548b62a8d60345a988386fc84ba6bc95484008f6362f93160ef3e5630180546001600160a01b038086166001600160a01b03199092168217909255604080519182525191871693507f0bdb7849ed0b0249d0f995067a2ca77769f68ab4c654931e262676effeb395f2925081900360200190a25095945050505050565b606060008054806020026020016040519081016040528092919081815260200182805480156102d757602002820191906000526020600020905b81546001600160a01b031681526001909101906020018083116102b9575b5050505050905090565b600081815481106102ee57fe5b6000918252602090912001546001600160a01b0316905081565b6001546001600160a01b031681565b61038c806103258339019056fe608060405234801561001057600080fd5b5060405161038c38038061038c8339818101604052608081101561003357600080fd5b50805160208201516040830151606090930151600080546001600160a01b03199081163317909155600493909355600580546001600160a01b0390931692909316919091179091556006919091556007556102f9806100936000396000f3fe60806040526004361061009c5760003560e01c80635f08db0a116100645780635f08db0a14610176578063775f75df1461018b57806382edaf94146101a0578063c45a0155146101b5578063eec7faa1146101ca578063f34eb206146101df5761009c565b806308551a53146100a15780633c9177cd146100d25780633f2965f0146100f95780634c1786ea1461012e57806356f1708214610143575b600080fd5b3480156100ad57600080fd5b506100b66101e7565b604080516001600160a01b039092168252519081900360200190f35b3480156100de57600080fd5b506100e76101f6565b60408051918252519081900360200190f35b34801561010557600080fd5b5061012c6004803603602081101561011c57600080fd5b50356001600160a01b03166101fc565b005b34801561013a57600080fd5b506100e7610235565b34801561014f57600080fd5b5061012c6004803603602081101561016657600080fd5b50356001600160a01b031661023b565b34801561018257600080fd5b506100e7610276565b34801561019757600080fd5b506100e761027c565b3480156101ac57600080fd5b506100b6610282565b3480156101c157600080fd5b506100b6610291565b3480156101d657600080fd5b506100e76102a0565b61012c6102a6565b6001546001600160a01b031681565b60075481565b6000546001600160a01b0316331461021357600080fd5b600180546001600160a01b0319166001600160a01b0392909216919091179055565b60025481565b6001546001600160a01b0316331461025257600080fd5b6001600160a01b03166000908152600860205260409020805460ff19166001179055565b60035481565b60065481565b6005546001600160a01b031681565b6000546001600160a01b031681565b60045481565b6001546001600160a01b031633146102bd57600080fd5b3460025556fea264697066735822122020c3faaeaf10942a7aea4a4c283e7f87be595ffa733b43f95c206c17beca171f64736f6c63430006020033a2646970667358221220d1723a096535574b4fc9d2b06b33db837cc8ae90c0e8c84c775e530d76e9b56364736f6c63430006020033",
  "source": "// SPDX-License-Identifier: MIT\npragma solidity ^0.6.2;\n\nimport './Auction.sol';\n\n// import '@openzeppelin/contracts/access/Ownable.sol';\n\ncontract AuctionFactory {\n  Auction[] public auctionAddresses;\n  address public admin;\n\n  event AuctionCreated(Auction auction, address indexed seller);\n\n  constructor() public {\n    admin = msg.sender;\n  }\n\n  function getAddresses() public view returns (Auction[] memory) {\n    return auctionAddresses;\n  }\n\n  function createAuction(\n    uint256 tokenAmount,\n    address tokenContractAddress,\n    uint256 startDateTime,\n    uint256 endDateTime,\n    address seller\n  ) public returns (address) {\n    Auction auction = new Auction(tokenAmount, tokenContractAddress, startDateTime, endDateTime);\n    auction.registerSeller(seller);\n    auctionAddresses.push(auction);\n    emit AuctionCreated(auction, seller);\n  }\n}\n",
  "sourcePath": "/Users/michaelmueller/code/consensys-bootcamp/gloom/contracts/AuctionFactory.sol",
  "compiler": {
    "name": "solc",
    "version": "0.6.2+commit.bacdbe57.Emscripten.clang"
  },
  "schemaVersion": "3.3.1",
  "updatedAt": "2020-11-30T23:22:37.120Z",
  "networkType": "ethereum",
  "devdoc": {
    "methods": {}
  },
  "userdoc": {
    "methods": {}
  }
}