{
  "contractName": "Auction",
  "abi": [
    {
      "inputs": [
        {
          "internalType": "uint256",
          "name": "_tokenAmount",
          "type": "uint256"
        },
        {
          "internalType": "address",
          "name": "_tokenContractAddress",
          "type": "address"
        },
        {
          "internalType": "uint256",
          "name": "_startDateTime",
          "type": "uint256"
        },
        {
          "internalType": "uint256",
          "name": "_endDateTime",
          "type": "uint256"
        }
      ],
      "stateMutability": "nonpayable",
      "type": "constructor"
    },
    {
      "inputs": [],
      "name": "bidderDeposit",
      "outputs": [
        {
          "internalType": "uint256",
          "name": "",
          "type": "uint256"
        }
      ],
      "stateMutability": "view",
      "type": "function"
    },
    {
      "inputs": [],
      "name": "endDateTime",
      "outputs": [
        {
          "internalType": "uint256",
          "name": "",
          "type": "uint256"
        }
      ],
      "stateMutability": "view",
      "type": "function"
    },
    {
      "inputs": [],
      "name": "factory",
      "outputs": [
        {
          "internalType": "address",
          "name": "",
          "type": "address"
        }
      ],
      "stateMutability": "view",
      "type": "function"
    },
    {
      "inputs": [],
      "name": "seller",
      "outputs": [
        {
          "internalType": "address",
          "name": "",
          "type": "address"
        }
      ],
      "stateMutability": "view",
      "type": "function"
    },
    {
      "inputs": [],
      "name": "sellerDeposit",
      "outputs": [
        {
          "internalType": "uint256",
          "name": "",
          "type": "uint256"
        }
      ],
      "stateMutability": "view",
      "type": "function"
    },
    {
      "inputs": [],
      "name": "startDateTime",
      "outputs": [
        {
          "internalType": "uint256",
          "name": "",
          "type": "uint256"
        }
      ],
      "stateMutability": "view",
      "type": "function"
    },
    {
      "inputs": [],
      "name": "tokenAmount",
      "outputs": [
        {
          "internalType": "uint256",
          "name": "",
          "type": "uint256"
        }
      ],
      "stateMutability": "view",
      "type": "function"
    },
    {
      "inputs": [],
      "name": "tokenContractAddress",
      "outputs": [
        {
          "internalType": "address",
          "name": "",
          "type": "address"
        }
      ],
      "stateMutability": "view",
      "type": "function"
    },
    {
      "inputs": [
        {
          "internalType": "address",
          "name": "_seller",
          "type": "address"
        }
      ],
      "name": "registerSeller",
      "outputs": [],
      "stateMutability": "nonpayable",
      "type": "function"
    },
    {
      "inputs": [],
      "name": "receiveSellerDeposit",
      "outputs": [],
      "stateMutability": "payable",
      "type": "function"
    },
    {
      "inputs": [
        {
          "internalType": "address",
          "name": "_bidder",
          "type": "address"
        }
      ],
      "name": "registerBidder",
      "outputs": [],
      "stateMutability": "nonpayable",
      "type": "function"
    }
  ],
  "bytecode": "0x608060405234801561001057600080fd5b5060405161038c38038061038c8339818101604052608081101561003357600080fd5b50805160208201516040830151606090930151600080546001600160a01b03199081163317909155600493909355600580546001600160a01b0390931692909316919091179091556006919091556007556102f9806100936000396000f3fe60806040526004361061009c5760003560e01c80635f08db0a116100645780635f08db0a14610176578063775f75df1461018b57806382edaf94146101a0578063c45a0155146101b5578063eec7faa1146101ca578063f34eb206146101df5761009c565b806308551a53146100a15780633c9177cd146100d25780633f2965f0146100f95780634c1786ea1461012e57806356f1708214610143575b600080fd5b3480156100ad57600080fd5b506100b66101e7565b604080516001600160a01b039092168252519081900360200190f35b3480156100de57600080fd5b506100e76101f6565b60408051918252519081900360200190f35b34801561010557600080fd5b5061012c6004803603602081101561011c57600080fd5b50356001600160a01b03166101fc565b005b34801561013a57600080fd5b506100e7610235565b34801561014f57600080fd5b5061012c6004803603602081101561016657600080fd5b50356001600160a01b031661023b565b34801561018257600080fd5b506100e7610276565b34801561019757600080fd5b506100e761027c565b3480156101ac57600080fd5b506100b6610282565b3480156101c157600080fd5b506100b6610291565b3480156101d657600080fd5b506100e76102a0565b61012c6102a6565b6001546001600160a01b031681565b60075481565b6000546001600160a01b0316331461021357600080fd5b600180546001600160a01b0319166001600160a01b0392909216919091179055565b60025481565b6001546001600160a01b0316331461025257600080fd5b6001600160a01b03166000908152600860205260409020805460ff19166001179055565b60035481565b60065481565b6005546001600160a01b031681565b6000546001600160a01b031681565b60045481565b6001546001600160a01b031633146102bd57600080fd5b3460025556fea264697066735822122020c3faaeaf10942a7aea4a4c283e7f87be595ffa733b43f95c206c17beca171f64736f6c63430006020033",
  "source": "// SPDX-License-Identifier: MIT\npragma solidity ^0.6.2;\n\n// import '@openzeppelin/contracts/proxy/Initializable.sol';\n// import '@openzeppelin/upgrades/contracts/Initializable.sol';\n\ncontract Auction {\n  address public factory;\n  address public seller;\n  uint256 public sellerDeposit;\n  uint256 public bidderDeposit;\n  uint256 public tokenAmount;\n  address public tokenContractAddress;\n  uint256 public startDateTime;\n  uint256 public endDateTime;\n\n  struct Bidder {\n    bool invited;\n    uint256 balance;\n    uint256 bid;\n    uint256 bidDateTime;\n  }\n\n  mapping(address => Bidder) private bidders;\n\n  constructor(\n    uint256 _tokenAmount,\n    address _tokenContractAddress,\n    uint256 _startDateTime,\n    uint256 _endDateTime\n  ) public {\n    factory = msg.sender;\n    tokenAmount = _tokenAmount;\n    tokenContractAddress = _tokenContractAddress;\n    startDateTime = _startDateTime;\n    endDateTime = _endDateTime;\n  }\n\n  function registerSeller(address _seller) external {\n    require(msg.sender == factory);\n    seller = _seller;\n  }\n\n  function receiveSellerDeposit() external payable {\n    require(msg.sender == seller);\n    sellerDeposit = msg.value;\n  }\n\n  function registerBidder(address _bidder) external {\n    require(msg.sender == seller);\n    bidders[_bidder].invited = true;\n  }\n}\n",
  "sourcePath": "/Users/michaelmueller/code/consensys-bootcamp/gloom/contracts/Auction.sol",
  "compiler": {
    "name": "solc",
    "version": "0.6.2+commit.bacdbe57.Emscripten.clang"
  },
  "schemaVersion": "3.3.1",
  "updatedAt": "2020-11-30T23:22:23.906Z",
  "devdoc": {
    "methods": {}
  },
  "userdoc": {
    "methods": {}
  }
}