{
  "contractName": "Auction",
  "abi": [
    {
      "inputs": [
        {
          "internalType": "uint256",
          "name": "_tokenAmount",
          "type": "uint256"
        },
        {
          "internalType": "address",
          "name": "_tokenContractAddress",
          "type": "address"
        },
        {
          "internalType": "uint256",
          "name": "_startDateTime",
          "type": "uint256"
        },
        {
          "internalType": "uint256",
          "name": "_endDateTime",
          "type": "uint256"
        }
      ],
      "stateMutability": "nonpayable",
      "type": "constructor"
    },
    {
      "inputs": [],
      "name": "endDateTime",
      "outputs": [
        {
          "internalType": "uint256",
          "name": "",
          "type": "uint256"
        }
      ],
      "stateMutability": "view",
      "type": "function"
    },
    {
      "inputs": [],
      "name": "factory",
      "outputs": [
        {
          "internalType": "address",
          "name": "",
          "type": "address"
        }
      ],
      "stateMutability": "view",
      "type": "function"
    },
    {
      "inputs": [],
      "name": "seller",
      "outputs": [
        {
          "internalType": "address",
          "name": "",
          "type": "address"
        }
      ],
      "stateMutability": "view",
      "type": "function"
    },
    {
      "inputs": [],
      "name": "sellerDeposit",
      "outputs": [
        {
          "internalType": "uint256",
          "name": "",
          "type": "uint256"
        }
      ],
      "stateMutability": "view",
      "type": "function"
    },
    {
      "inputs": [],
      "name": "startDateTime",
      "outputs": [
        {
          "internalType": "uint256",
          "name": "",
          "type": "uint256"
        }
      ],
      "stateMutability": "view",
      "type": "function"
    },
    {
      "inputs": [],
      "name": "tokenAmount",
      "outputs": [
        {
          "internalType": "uint256",
          "name": "",
          "type": "uint256"
        }
      ],
      "stateMutability": "view",
      "type": "function"
    },
    {
      "inputs": [],
      "name": "tokenContractAddress",
      "outputs": [
        {
          "internalType": "address",
          "name": "",
          "type": "address"
        }
      ],
      "stateMutability": "view",
      "type": "function"
    },
    {
      "inputs": [
        {
          "internalType": "address",
          "name": "_seller",
          "type": "address"
        }
      ],
      "name": "registerSeller",
      "outputs": [],
      "stateMutability": "nonpayable",
      "type": "function"
    },
    {
      "inputs": [],
      "name": "receiveSellerDeposit",
      "outputs": [],
      "stateMutability": "payable",
      "type": "function"
    }
  ],
  "bytecode": "0x608060405234801561001057600080fd5b506040516102ed3803806102ed8339818101604052608081101561003357600080fd5b50805160208201516040830151606090930151600080546001600160a01b03199081163317909155600393909355600480546001600160a01b03909316929093169190911790915560059190915560065561025a806100936000396000f3fe6080604052600436106100865760003560e01c8063775f75df11610059578063775f75df1461012d57806382edaf9414610142578063c45a015514610157578063eec7faa11461016c578063f34eb2061461018157610086565b806308551a531461008b5780633c9177cd146100bc5780633f2965f0146100e35780634c1786ea14610118575b600080fd5b34801561009757600080fd5b506100a0610189565b604080516001600160a01b039092168252519081900360200190f35b3480156100c857600080fd5b506100d1610198565b60408051918252519081900360200190f35b3480156100ef57600080fd5b506101166004803603602081101561010657600080fd5b50356001600160a01b031661019e565b005b34801561012457600080fd5b506100d16101d7565b34801561013957600080fd5b506100d16101dd565b34801561014e57600080fd5b506100a06101e3565b34801561016357600080fd5b506100a06101f2565b34801561017857600080fd5b506100d1610201565b610116610207565b6001546001600160a01b031681565b60065481565b6000546001600160a01b031633146101b557600080fd5b600180546001600160a01b0319166001600160a01b0392909216919091179055565b60025481565b60055481565b6004546001600160a01b031681565b6000546001600160a01b031681565b60035481565b6001546001600160a01b0316331461021e57600080fd5b3460025556fea2646970667358221220130bb60da909eb8cee817cc6240e3d39777d8edbecb3293e553d31c8db6e6b5a64736f6c63430006020033",
  "source": "// SPDX-License-Identifier: MIT\npragma solidity ^0.6.2;\n\n// import '@openzeppelin/contracts/proxy/Initializable.sol';\n// import '@openzeppelin/upgrades/contracts/Initializable.sol';\n\ncontract Auction {\n  address public factory;\n  address public seller;\n  uint256 public sellerDeposit;\n  uint256 public tokenAmount;\n  address public tokenContractAddress;\n  uint256 public startDateTime;\n  uint256 public endDateTime;\n\n  constructor(\n    uint256 _tokenAmount,\n    address _tokenContractAddress,\n    uint256 _startDateTime,\n    uint256 _endDateTime\n  ) public {\n    factory = msg.sender;\n    tokenAmount = _tokenAmount;\n    tokenContractAddress = _tokenContractAddress;\n    startDateTime = _startDateTime;\n    endDateTime = _endDateTime;\n  }\n\n  function registerSeller(address _seller) external {\n    require(msg.sender == factory);\n    seller = _seller;\n  }\n\n  function receiveSellerDeposit() external payable {\n    require(msg.sender == seller);\n    sellerDeposit = msg.value;\n  }\n}\n",
  "sourcePath": "/Users/michaelmueller/code/consensys-bootcamp/gloom/contracts/Auction.sol",
  "compiler": {
    "name": "solc",
    "version": "0.6.2+commit.bacdbe57.Emscripten.clang"
  },
  "schemaVersion": "3.3.1",
  "updatedAt": "2020-11-28T23:10:15.302Z",
  "devdoc": {
    "methods": {}
  },
  "userdoc": {
    "methods": {}
  }
}